{
  "contracts/Cafereum.sol": {
    "Cafereum": {
      "abi": [
        {
          "inputs": [
            {
              "internalType": "uint256",
              "name": "_coffeePrice",
              "type": "uint256"
            }
          ],
          "stateMutability": "nonpayable",
          "type": "constructor"
        },
        {
          "anonymous": false,
          "inputs": [
            {
              "indexed": false,
              "internalType": "string",
              "name": "productType",
              "type": "string"
            },
            {
              "indexed": false,
              "internalType": "string",
              "name": "productStrength",
              "type": "string"
            }
          ],
          "name": "ProductPurchased",
          "type": "event"
        },
        {
          "inputs": [
            {
              "internalType": "string",
              "name": "productType",
              "type": "string"
            },
            {
              "internalType": "string",
              "name": "productStrength",
              "type": "string"
            }
          ],
          "name": "buyProduct",
          "outputs": [],
          "stateMutability": "payable",
          "type": "function"
        },
        {
          "inputs": [],
          "name": "coffeePrice",
          "outputs": [
            {
              "internalType": "uint256",
              "name": "",
              "type": "uint256"
            }
          ],
          "stateMutability": "view",
          "type": "function"
        },
        {
          "inputs": [],
          "name": "getBalance",
          "outputs": [
            {
              "internalType": "uint256",
              "name": "",
              "type": "uint256"
            }
          ],
          "stateMutability": "view",
          "type": "function"
        },
        {
          "inputs": [],
          "name": "owner",
          "outputs": [
            {
              "internalType": "address payable",
              "name": "",
              "type": "address"
            }
          ],
          "stateMutability": "view",
          "type": "function"
        },
        {
          "inputs": [],
          "name": "withdraw",
          "outputs": [],
          "stateMutability": "nonpayable",
          "type": "function"
        }
      ],
      "evm": {
        "bytecode": {
          "linkReferences": {},
          "object": "608060405234801561001057600080fd5b50604051610ce0380380610ce0833981810160405281019061003291906100fe565b60008111610075576040517f08c379a000000000000000000000000000000000000000000000000000000000815260040161006c906101ae565b60405180910390fd5b8060008190555033600160006101000a81548173ffffffffffffffffffffffffffffffffffffffff021916908373ffffffffffffffffffffffffffffffffffffffff160217905550506101ce565b600080fd5b6000819050919050565b6100db816100c8565b81146100e657600080fd5b50565b6000815190506100f8816100d2565b92915050565b600060208284031215610114576101136100c3565b5b6000610122848285016100e9565b91505092915050565b600082825260208201905092915050565b7f436f666665652070726963652073686f756c642062652067726561746572207460008201527f68616e207a65726f000000000000000000000000000000000000000000000000602082015250565b600061019860288361012b565b91506101a38261013c565b604082019050919050565b600060208201905081810360008301526101c78161018b565b9050919050565b610b03806101dd6000396000f3fe60806040526004361061004a5760003560e01c806312065fe01461004f5780631c8a40381461007a5780633ccfd60b146100a55780636256b8e4146100bc5780638da5cb5b146100d8575b600080fd5b34801561005b57600080fd5b50610064610103565b60405161007191906105cb565b60405180910390f35b34801561008657600080fd5b5061008f61010b565b60405161009c91906105cb565b60405180910390f35b3480156100b157600080fd5b506100ba610111565b005b6100d660048036038101906100d19190610740565b610212565b005b3480156100e457600080fd5b506100ed610533565b6040516100fa91906107f9565b60405180910390f35b600047905090565b60005481565b600160009054906101000a900473ffffffffffffffffffffffffffffffffffffffff1673ffffffffffffffffffffffffffffffffffffffff163373ffffffffffffffffffffffffffffffffffffffff16146101a1576040517f08c379a000000000000000000000000000000000000000000000000000000000815260040161019890610871565b60405180910390fd5b6000479050600160009054906101000a900473ffffffffffffffffffffffffffffffffffffffff1673ffffffffffffffffffffffffffffffffffffffff166108fc829081150290604051600060405180830381858888f1935050505015801561020e573d6000803e3d6000fd5b5050565b6000543414610256576040517f08c379a000000000000000000000000000000000000000000000000000000000815260040161024d906108dd565b60405180910390fd5b610295826040518060400160405280600c81526020017f53696e676c65436f666665650000000000000000000000000000000000000000815250610559565b806102db57506102da826040518060400160405280600c81526020017f446f75626c65436f666665650000000000000000000000000000000000000000815250610559565b5b806103215750610320826040518060400160405280600e81526020017f53696e676c65457370726573736f000000000000000000000000000000000000815250610559565b5b806103675750610366826040518060400160405280600e81526020017f446f75626c65457370726573736f000000000000000000000000000000000000815250610559565b5b6103a6576040517f08c379a000000000000000000000000000000000000000000000000000000000815260040161039d90610949565b60405180910390fd5b6103e5816040518060400160405280600481526020017f4d696c6400000000000000000000000000000000000000000000000000000000815250610559565b8061042b575061042a816040518060400160405280600681526020017f4e6f726d616c0000000000000000000000000000000000000000000000000000815250610559565b5b806104715750610470816040518060400160405280600681526020017f5374726f6e670000000000000000000000000000000000000000000000000000815250610559565b5b806104b757506104b6816040518060400160405280600581526020017f4578747261000000000000000000000000000000000000000000000000000000815250610559565b5b6104f6576040517f08c379a00000000000000000000000000000000000000000000000000000000081526004016104ed906109b5565b60405180910390fd5b7f530bfe02c23952f427d14753978f80ea284ba09b0709b6766f20706422d45e268282604051610527929190610a43565b60405180910390a15050565b600160009054906101000a900473ffffffffffffffffffffffffffffffffffffffff1681565b60008160405160200161056c9190610ab6565b60405160208183030381529060405280519060200120836040516020016105939190610ab6565b6040516020818303038152906040528051906020012014905092915050565b6000819050919050565b6105c5816105b2565b82525050565b60006020820190506105e060008301846105bc565b92915050565b6000604051905090565b600080fd5b600080fd5b600080fd5b600080fd5b6000601f19601f8301169050919050565b7f4e487b7100000000000000000000000000000000000000000000000000000000600052604160045260246000fd5b61064d82610604565b810181811067ffffffffffffffff8211171561066c5761066b610615565b5b80604052505050565b600061067f6105e6565b905061068b8282610644565b919050565b600067ffffffffffffffff8211156106ab576106aa610615565b5b6106b482610604565b9050602081019050919050565b82818337600083830152505050565b60006106e36106de84610690565b610675565b9050828152602081018484840111156106ff576106fe6105ff565b5b61070a8482856106c1565b509392505050565b600082601f830112610727576107266105fa565b5b81356107378482602086016106d0565b91505092915050565b60008060408385031215610757576107566105f0565b5b600083013567ffffffffffffffff811115610775576107746105f5565b5b61078185828601610712565b925050602083013567ffffffffffffffff8111156107a2576107a16105f5565b5b6107ae85828601610712565b9150509250929050565b600073ffffffffffffffffffffffffffffffffffffffff82169050919050565b60006107e3826107b8565b9050919050565b6107f3816107d8565b82525050565b600060208201905061080e60008301846107ea565b92915050565b600082825260208201905092915050565b7f596f7520617265206e6f7420746865206f776e65720000000000000000000000600082015250565b600061085b601583610814565b915061086682610825565b602082019050919050565b6000602082019050818103600083015261088a8161084e565b9050919050565b7f496e636f727265637420616d6f756e742073656e740000000000000000000000600082015250565b60006108c7601583610814565b91506108d282610891565b602082019050919050565b600060208201905081810360008301526108f6816108ba565b9050919050565b7f496e76616c69642070726f647563742074797065000000000000000000000000600082015250565b6000610933601483610814565b915061093e826108fd565b602082019050919050565b6000602082019050818103600083015261096281610926565b9050919050565b7f496e76616c69642070726f6475637420737472656e6774680000000000000000600082015250565b600061099f601883610814565b91506109aa82610969565b602082019050919050565b600060208201905081810360008301526109ce81610992565b9050919050565b600081519050919050565b60005b838110156109fe5780820151818401526020810190506109e3565b60008484015250505050565b6000610a15826109d5565b610a1f8185610814565b9350610a2f8185602086016109e0565b610a3881610604565b840191505092915050565b60006040820190508181036000830152610a5d8185610a0a565b90508181036020830152610a718184610a0a565b90509392505050565b600081905092915050565b6000610a90826109d5565b610a9a8185610a7a565b9350610aaa8185602086016109e0565b80840191505092915050565b6000610ac28284610a85565b91508190509291505056fea264697066735822122092595224329fa087c93db8e48a258f6207a7178dd00250feea09e72b17d4c66c64736f6c634300081c0033",
          "opcodes": "PUSH1 0x80 PUSH1 0x40 MSTORE CALLVALUE DUP1 ISZERO PUSH2 0x10 JUMPI PUSH1 0x0 DUP1 REVERT JUMPDEST POP PUSH1 0x40 MLOAD PUSH2 0xCE0 CODESIZE SUB DUP1 PUSH2 0xCE0 DUP4 CODECOPY DUP2 DUP2 ADD PUSH1 0x40 MSTORE DUP2 ADD SWAP1 PUSH2 0x32 SWAP2 SWAP1 PUSH2 0xFE JUMP JUMPDEST PUSH1 0x0 DUP2 GT PUSH2 0x75 JUMPI PUSH1 0x40 MLOAD PUSH32 0x8C379A000000000000000000000000000000000000000000000000000000000 DUP2 MSTORE PUSH1 0x4 ADD PUSH2 0x6C SWAP1 PUSH2 0x1AE JUMP JUMPDEST PUSH1 0x40 MLOAD DUP1 SWAP2 SUB SWAP1 REVERT JUMPDEST DUP1 PUSH1 0x0 DUP2 SWAP1 SSTORE POP CALLER PUSH1 0x1 PUSH1 0x0 PUSH2 0x100 EXP DUP2 SLOAD DUP2 PUSH20 0xFFFFFFFFFFFFFFFFFFFFFFFFFFFFFFFFFFFFFFFF MUL NOT AND SWAP1 DUP4 PUSH20 0xFFFFFFFFFFFFFFFFFFFFFFFFFFFFFFFFFFFFFFFF AND MUL OR SWAP1 SSTORE POP POP PUSH2 0x1CE JUMP JUMPDEST PUSH1 0x0 DUP1 REVERT JUMPDEST PUSH1 0x0 DUP2 SWAP1 POP SWAP2 SWAP1 POP JUMP JUMPDEST PUSH2 0xDB DUP2 PUSH2 0xC8 JUMP JUMPDEST DUP2 EQ PUSH2 0xE6 JUMPI PUSH1 0x0 DUP1 REVERT JUMPDEST POP JUMP JUMPDEST PUSH1 0x0 DUP2 MLOAD SWAP1 POP PUSH2 0xF8 DUP2 PUSH2 0xD2 JUMP JUMPDEST SWAP3 SWAP2 POP POP JUMP JUMPDEST PUSH1 0x0 PUSH1 0x20 DUP3 DUP5 SUB SLT ISZERO PUSH2 0x114 JUMPI PUSH2 0x113 PUSH2 0xC3 JUMP JUMPDEST JUMPDEST PUSH1 0x0 PUSH2 0x122 DUP5 DUP3 DUP6 ADD PUSH2 0xE9 JUMP JUMPDEST SWAP2 POP POP SWAP3 SWAP2 POP POP JUMP JUMPDEST PUSH1 0x0 DUP3 DUP3 MSTORE PUSH1 0x20 DUP3 ADD SWAP1 POP SWAP3 SWAP2 POP POP JUMP JUMPDEST PUSH32 0x436F666665652070726963652073686F756C6420626520677265617465722074 PUSH1 0x0 DUP3 ADD MSTORE PUSH32 0x68616E207A65726F000000000000000000000000000000000000000000000000 PUSH1 0x20 DUP3 ADD MSTORE POP JUMP JUMPDEST PUSH1 0x0 PUSH2 0x198 PUSH1 0x28 DUP4 PUSH2 0x12B JUMP JUMPDEST SWAP2 POP PUSH2 0x1A3 DUP3 PUSH2 0x13C JUMP JUMPDEST PUSH1 0x40 DUP3 ADD SWAP1 POP SWAP2 SWAP1 POP JUMP JUMPDEST PUSH1 0x0 PUSH1 0x20 DUP3 ADD SWAP1 POP DUP2 DUP2 SUB PUSH1 0x0 DUP4 ADD MSTORE PUSH2 0x1C7 DUP2 PUSH2 0x18B JUMP JUMPDEST SWAP1 POP SWAP2 SWAP1 POP JUMP JUMPDEST PUSH2 0xB03 DUP1 PUSH2 0x1DD PUSH1 0x0 CODECOPY PUSH1 0x0 RETURN INVALID PUSH1 0x80 PUSH1 0x40 MSTORE PUSH1 0x4 CALLDATASIZE LT PUSH2 0x4A JUMPI PUSH1 0x0 CALLDATALOAD PUSH1 0xE0 SHR DUP1 PUSH4 0x12065FE0 EQ PUSH2 0x4F JUMPI DUP1 PUSH4 0x1C8A4038 EQ PUSH2 0x7A JUMPI DUP1 PUSH4 0x3CCFD60B EQ PUSH2 0xA5 JUMPI DUP1 PUSH4 0x6256B8E4 EQ PUSH2 0xBC JUMPI DUP1 PUSH4 0x8DA5CB5B EQ PUSH2 0xD8 JUMPI JUMPDEST PUSH1 0x0 DUP1 REVERT JUMPDEST CALLVALUE DUP1 ISZERO PUSH2 0x5B JUMPI PUSH1 0x0 DUP1 REVERT JUMPDEST POP PUSH2 0x64 PUSH2 0x103 JUMP JUMPDEST PUSH1 0x40 MLOAD PUSH2 0x71 SWAP2 SWAP1 PUSH2 0x5CB JUMP JUMPDEST PUSH1 0x40 MLOAD DUP1 SWAP2 SUB SWAP1 RETURN JUMPDEST CALLVALUE DUP1 ISZERO PUSH2 0x86 JUMPI PUSH1 0x0 DUP1 REVERT JUMPDEST POP PUSH2 0x8F PUSH2 0x10B JUMP JUMPDEST PUSH1 0x40 MLOAD PUSH2 0x9C SWAP2 SWAP1 PUSH2 0x5CB JUMP JUMPDEST PUSH1 0x40 MLOAD DUP1 SWAP2 SUB SWAP1 RETURN JUMPDEST CALLVALUE DUP1 ISZERO PUSH2 0xB1 JUMPI PUSH1 0x0 DUP1 REVERT JUMPDEST POP PUSH2 0xBA PUSH2 0x111 JUMP JUMPDEST STOP JUMPDEST PUSH2 0xD6 PUSH1 0x4 DUP1 CALLDATASIZE SUB DUP2 ADD SWAP1 PUSH2 0xD1 SWAP2 SWAP1 PUSH2 0x740 JUMP JUMPDEST PUSH2 0x212 JUMP JUMPDEST STOP JUMPDEST CALLVALUE DUP1 ISZERO PUSH2 0xE4 JUMPI PUSH1 0x0 DUP1 REVERT JUMPDEST POP PUSH2 0xED PUSH2 0x533 JUMP JUMPDEST PUSH1 0x40 MLOAD PUSH2 0xFA SWAP2 SWAP1 PUSH2 0x7F9 JUMP JUMPDEST PUSH1 0x40 MLOAD DUP1 SWAP2 SUB SWAP1 RETURN JUMPDEST PUSH1 0x0 SELFBALANCE SWAP1 POP SWAP1 JUMP JUMPDEST PUSH1 0x0 SLOAD DUP2 JUMP JUMPDEST PUSH1 0x1 PUSH1 0x0 SWAP1 SLOAD SWAP1 PUSH2 0x100 EXP SWAP1 DIV PUSH20 0xFFFFFFFFFFFFFFFFFFFFFFFFFFFFFFFFFFFFFFFF AND PUSH20 0xFFFFFFFFFFFFFFFFFFFFFFFFFFFFFFFFFFFFFFFF AND CALLER PUSH20 0xFFFFFFFFFFFFFFFFFFFFFFFFFFFFFFFFFFFFFFFF AND EQ PUSH2 0x1A1 JUMPI PUSH1 0x40 MLOAD PUSH32 0x8C379A000000000000000000000000000000000000000000000000000000000 DUP2 MSTORE PUSH1 0x4 ADD PUSH2 0x198 SWAP1 PUSH2 0x871 JUMP JUMPDEST PUSH1 0x40 MLOAD DUP1 SWAP2 SUB SWAP1 REVERT JUMPDEST PUSH1 0x0 SELFBALANCE SWAP1 POP PUSH1 0x1 PUSH1 0x0 SWAP1 SLOAD SWAP1 PUSH2 0x100 EXP SWAP1 DIV PUSH20 0xFFFFFFFFFFFFFFFFFFFFFFFFFFFFFFFFFFFFFFFF AND PUSH20 0xFFFFFFFFFFFFFFFFFFFFFFFFFFFFFFFFFFFFFFFF AND PUSH2 0x8FC DUP3 SWAP1 DUP2 ISZERO MUL SWAP1 PUSH1 0x40 MLOAD PUSH1 0x0 PUSH1 0x40 MLOAD DUP1 DUP4 SUB DUP2 DUP6 DUP9 DUP9 CALL SWAP4 POP POP POP POP ISZERO DUP1 ISZERO PUSH2 0x20E JUMPI RETURNDATASIZE PUSH1 0x0 DUP1 RETURNDATACOPY RETURNDATASIZE PUSH1 0x0 REVERT JUMPDEST POP POP JUMP JUMPDEST PUSH1 0x0 SLOAD CALLVALUE EQ PUSH2 0x256 JUMPI PUSH1 0x40 MLOAD PUSH32 0x8C379A000000000000000000000000000000000000000000000000000000000 DUP2 MSTORE PUSH1 0x4 ADD PUSH2 0x24D SWAP1 PUSH2 0x8DD JUMP JUMPDEST PUSH1 0x40 MLOAD DUP1 SWAP2 SUB SWAP1 REVERT JUMPDEST PUSH2 0x295 DUP3 PUSH1 0x40 MLOAD DUP1 PUSH1 0x40 ADD PUSH1 0x40 MSTORE DUP1 PUSH1 0xC DUP2 MSTORE PUSH1 0x20 ADD PUSH32 0x53696E676C65436F666665650000000000000000000000000000000000000000 DUP2 MSTORE POP PUSH2 0x559 JUMP JUMPDEST DUP1 PUSH2 0x2DB JUMPI POP PUSH2 0x2DA DUP3 PUSH1 0x40 MLOAD DUP1 PUSH1 0x40 ADD PUSH1 0x40 MSTORE DUP1 PUSH1 0xC DUP2 MSTORE PUSH1 0x20 ADD PUSH32 0x446F75626C65436F666665650000000000000000000000000000000000000000 DUP2 MSTORE POP PUSH2 0x559 JUMP JUMPDEST JUMPDEST DUP1 PUSH2 0x321 JUMPI POP PUSH2 0x320 DUP3 PUSH1 0x40 MLOAD DUP1 PUSH1 0x40 ADD PUSH1 0x40 MSTORE DUP1 PUSH1 0xE DUP2 MSTORE PUSH1 0x20 ADD PUSH32 0x53696E676C65457370726573736F000000000000000000000000000000000000 DUP2 MSTORE POP PUSH2 0x559 JUMP JUMPDEST JUMPDEST DUP1 PUSH2 0x367 JUMPI POP PUSH2 0x366 DUP3 PUSH1 0x40 MLOAD DUP1 PUSH1 0x40 ADD PUSH1 0x40 MSTORE DUP1 PUSH1 0xE DUP2 MSTORE PUSH1 0x20 ADD PUSH32 0x446F75626C65457370726573736F000000000000000000000000000000000000 DUP2 MSTORE POP PUSH2 0x559 JUMP JUMPDEST JUMPDEST PUSH2 0x3A6 JUMPI PUSH1 0x40 MLOAD PUSH32 0x8C379A000000000000000000000000000000000000000000000000000000000 DUP2 MSTORE PUSH1 0x4 ADD PUSH2 0x39D SWAP1 PUSH2 0x949 JUMP JUMPDEST PUSH1 0x40 MLOAD DUP1 SWAP2 SUB SWAP1 REVERT JUMPDEST PUSH2 0x3E5 DUP2 PUSH1 0x40 MLOAD DUP1 PUSH1 0x40 ADD PUSH1 0x40 MSTORE DUP1 PUSH1 0x4 DUP2 MSTORE PUSH1 0x20 ADD PUSH32 0x4D696C6400000000000000000000000000000000000000000000000000000000 DUP2 MSTORE POP PUSH2 0x559 JUMP JUMPDEST DUP1 PUSH2 0x42B JUMPI POP PUSH2 0x42A DUP2 PUSH1 0x40 MLOAD DUP1 PUSH1 0x40 ADD PUSH1 0x40 MSTORE DUP1 PUSH1 0x6 DUP2 MSTORE PUSH1 0x20 ADD PUSH32 0x4E6F726D616C0000000000000000000000000000000000000000000000000000 DUP2 MSTORE POP PUSH2 0x559 JUMP JUMPDEST JUMPDEST DUP1 PUSH2 0x471 JUMPI POP PUSH2 0x470 DUP2 PUSH1 0x40 MLOAD DUP1 PUSH1 0x40 ADD PUSH1 0x40 MSTORE DUP1 PUSH1 0x6 DUP2 MSTORE PUSH1 0x20 ADD PUSH32 0x5374726F6E670000000000000000000000000000000000000000000000000000 DUP2 MSTORE POP PUSH2 0x559 JUMP JUMPDEST JUMPDEST DUP1 PUSH2 0x4B7 JUMPI POP PUSH2 0x4B6 DUP2 PUSH1 0x40 MLOAD DUP1 PUSH1 0x40 ADD PUSH1 0x40 MSTORE DUP1 PUSH1 0x5 DUP2 MSTORE PUSH1 0x20 ADD PUSH32 0x4578747261000000000000000000000000000000000000000000000000000000 DUP2 MSTORE POP PUSH2 0x559 JUMP JUMPDEST JUMPDEST PUSH2 0x4F6 JUMPI PUSH1 0x40 MLOAD PUSH32 0x8C379A000000000000000000000000000000000000000000000000000000000 DUP2 MSTORE PUSH1 0x4 ADD PUSH2 0x4ED SWAP1 PUSH2 0x9B5 JUMP JUMPDEST PUSH1 0x40 MLOAD DUP1 SWAP2 SUB SWAP1 REVERT JUMPDEST PUSH32 0x530BFE02C23952F427D14753978F80EA284BA09B0709B6766F20706422D45E26 DUP3 DUP3 PUSH1 0x40 MLOAD PUSH2 0x527 SWAP3 SWAP2 SWAP1 PUSH2 0xA43 JUMP JUMPDEST PUSH1 0x40 MLOAD DUP1 SWAP2 SUB SWAP1 LOG1 POP POP JUMP JUMPDEST PUSH1 0x1 PUSH1 0x0 SWAP1 SLOAD SWAP1 PUSH2 0x100 EXP SWAP1 DIV PUSH20 0xFFFFFFFFFFFFFFFFFFFFFFFFFFFFFFFFFFFFFFFF AND DUP2 JUMP JUMPDEST PUSH1 0x0 DUP2 PUSH1 0x40 MLOAD PUSH1 0x20 ADD PUSH2 0x56C SWAP2 SWAP1 PUSH2 0xAB6 JUMP JUMPDEST PUSH1 0x40 MLOAD PUSH1 0x20 DUP2 DUP4 SUB SUB DUP2 MSTORE SWAP1 PUSH1 0x40 MSTORE DUP1 MLOAD SWAP1 PUSH1 0x20 ADD KECCAK256 DUP4 PUSH1 0x40 MLOAD PUSH1 0x20 ADD PUSH2 0x593 SWAP2 SWAP1 PUSH2 0xAB6 JUMP JUMPDEST PUSH1 0x40 MLOAD PUSH1 0x20 DUP2 DUP4 SUB SUB DUP2 MSTORE SWAP1 PUSH1 0x40 MSTORE DUP1 MLOAD SWAP1 PUSH1 0x20 ADD KECCAK256 EQ SWAP1 POP SWAP3 SWAP2 POP POP JUMP JUMPDEST PUSH1 0x0 DUP2 SWAP1 POP SWAP2 SWAP1 POP JUMP JUMPDEST PUSH2 0x5C5 DUP2 PUSH2 0x5B2 JUMP JUMPDEST DUP3 MSTORE POP POP JUMP JUMPDEST PUSH1 0x0 PUSH1 0x20 DUP3 ADD SWAP1 POP PUSH2 0x5E0 PUSH1 0x0 DUP4 ADD DUP5 PUSH2 0x5BC JUMP JUMPDEST SWAP3 SWAP2 POP POP JUMP JUMPDEST PUSH1 0x0 PUSH1 0x40 MLOAD SWAP1 POP SWAP1 JUMP JUMPDEST PUSH1 0x0 DUP1 REVERT JUMPDEST PUSH1 0x0 DUP1 REVERT JUMPDEST PUSH1 0x0 DUP1 REVERT JUMPDEST PUSH1 0x0 DUP1 REVERT JUMPDEST PUSH1 0x0 PUSH1 0x1F NOT PUSH1 0x1F DUP4 ADD AND SWAP1 POP SWAP2 SWAP1 POP JUMP JUMPDEST PUSH32 0x4E487B7100000000000000000000000000000000000000000000000000000000 PUSH1 0x0 MSTORE PUSH1 0x41 PUSH1 0x4 MSTORE PUSH1 0x24 PUSH1 0x0 REVERT JUMPDEST PUSH2 0x64D DUP3 PUSH2 0x604 JUMP JUMPDEST DUP2 ADD DUP2 DUP2 LT PUSH8 0xFFFFFFFFFFFFFFFF DUP3 GT OR ISZERO PUSH2 0x66C JUMPI PUSH2 0x66B PUSH2 0x615 JUMP JUMPDEST JUMPDEST DUP1 PUSH1 0x40 MSTORE POP POP POP JUMP JUMPDEST PUSH1 0x0 PUSH2 0x67F PUSH2 0x5E6 JUMP JUMPDEST SWAP1 POP PUSH2 0x68B DUP3 DUP3 PUSH2 0x644 JUMP JUMPDEST SWAP2 SWAP1 POP JUMP JUMPDEST PUSH1 0x0 PUSH8 0xFFFFFFFFFFFFFFFF DUP3 GT ISZERO PUSH2 0x6AB JUMPI PUSH2 0x6AA PUSH2 0x615 JUMP JUMPDEST JUMPDEST PUSH2 0x6B4 DUP3 PUSH2 0x604 JUMP JUMPDEST SWAP1 POP PUSH1 0x20 DUP2 ADD SWAP1 POP SWAP2 SWAP1 POP JUMP JUMPDEST DUP3 DUP2 DUP4 CALLDATACOPY PUSH1 0x0 DUP4 DUP4 ADD MSTORE POP POP POP JUMP JUMPDEST PUSH1 0x0 PUSH2 0x6E3 PUSH2 0x6DE DUP5 PUSH2 0x690 JUMP JUMPDEST PUSH2 0x675 JUMP JUMPDEST SWAP1 POP DUP3 DUP2 MSTORE PUSH1 0x20 DUP2 ADD DUP5 DUP5 DUP5 ADD GT ISZERO PUSH2 0x6FF JUMPI PUSH2 0x6FE PUSH2 0x5FF JUMP JUMPDEST JUMPDEST PUSH2 0x70A DUP5 DUP3 DUP6 PUSH2 0x6C1 JUMP JUMPDEST POP SWAP4 SWAP3 POP POP POP JUMP JUMPDEST PUSH1 0x0 DUP3 PUSH1 0x1F DUP4 ADD SLT PUSH2 0x727 JUMPI PUSH2 0x726 PUSH2 0x5FA JUMP JUMPDEST JUMPDEST DUP2 CALLDATALOAD PUSH2 0x737 DUP5 DUP3 PUSH1 0x20 DUP7 ADD PUSH2 0x6D0 JUMP JUMPDEST SWAP2 POP POP SWAP3 SWAP2 POP POP JUMP JUMPDEST PUSH1 0x0 DUP1 PUSH1 0x40 DUP4 DUP6 SUB SLT ISZERO PUSH2 0x757 JUMPI PUSH2 0x756 PUSH2 0x5F0 JUMP JUMPDEST JUMPDEST PUSH1 0x0 DUP4 ADD CALLDATALOAD PUSH8 0xFFFFFFFFFFFFFFFF DUP2 GT ISZERO PUSH2 0x775 JUMPI PUSH2 0x774 PUSH2 0x5F5 JUMP JUMPDEST JUMPDEST PUSH2 0x781 DUP6 DUP3 DUP7 ADD PUSH2 0x712 JUMP JUMPDEST SWAP3 POP POP PUSH1 0x20 DUP4 ADD CALLDATALOAD PUSH8 0xFFFFFFFFFFFFFFFF DUP2 GT ISZERO PUSH2 0x7A2 JUMPI PUSH2 0x7A1 PUSH2 0x5F5 JUMP JUMPDEST JUMPDEST PUSH2 0x7AE DUP6 DUP3 DUP7 ADD PUSH2 0x712 JUMP JUMPDEST SWAP2 POP POP SWAP3 POP SWAP3 SWAP1 POP JUMP JUMPDEST PUSH1 0x0 PUSH20 0xFFFFFFFFFFFFFFFFFFFFFFFFFFFFFFFFFFFFFFFF DUP3 AND SWAP1 POP SWAP2 SWAP1 POP JUMP JUMPDEST PUSH1 0x0 PUSH2 0x7E3 DUP3 PUSH2 0x7B8 JUMP JUMPDEST SWAP1 POP SWAP2 SWAP1 POP JUMP JUMPDEST PUSH2 0x7F3 DUP2 PUSH2 0x7D8 JUMP JUMPDEST DUP3 MSTORE POP POP JUMP JUMPDEST PUSH1 0x0 PUSH1 0x20 DUP3 ADD SWAP1 POP PUSH2 0x80E PUSH1 0x0 DUP4 ADD DUP5 PUSH2 0x7EA JUMP JUMPDEST SWAP3 SWAP2 POP POP JUMP JUMPDEST PUSH1 0x0 DUP3 DUP3 MSTORE PUSH1 0x20 DUP3 ADD SWAP1 POP SWAP3 SWAP2 POP POP JUMP JUMPDEST PUSH32 0x596F7520617265206E6F7420746865206F776E65720000000000000000000000 PUSH1 0x0 DUP3 ADD MSTORE POP JUMP JUMPDEST PUSH1 0x0 PUSH2 0x85B PUSH1 0x15 DUP4 PUSH2 0x814 JUMP JUMPDEST SWAP2 POP PUSH2 0x866 DUP3 PUSH2 0x825 JUMP JUMPDEST PUSH1 0x20 DUP3 ADD SWAP1 POP SWAP2 SWAP1 POP JUMP JUMPDEST PUSH1 0x0 PUSH1 0x20 DUP3 ADD SWAP1 POP DUP2 DUP2 SUB PUSH1 0x0 DUP4 ADD MSTORE PUSH2 0x88A DUP2 PUSH2 0x84E JUMP JUMPDEST SWAP1 POP SWAP2 SWAP1 POP JUMP JUMPDEST PUSH32 0x496E636F727265637420616D6F756E742073656E740000000000000000000000 PUSH1 0x0 DUP3 ADD MSTORE POP JUMP JUMPDEST PUSH1 0x0 PUSH2 0x8C7 PUSH1 0x15 DUP4 PUSH2 0x814 JUMP JUMPDEST SWAP2 POP PUSH2 0x8D2 DUP3 PUSH2 0x891 JUMP JUMPDEST PUSH1 0x20 DUP3 ADD SWAP1 POP SWAP2 SWAP1 POP JUMP JUMPDEST PUSH1 0x0 PUSH1 0x20 DUP3 ADD SWAP1 POP DUP2 DUP2 SUB PUSH1 0x0 DUP4 ADD MSTORE PUSH2 0x8F6 DUP2 PUSH2 0x8BA JUMP JUMPDEST SWAP1 POP SWAP2 SWAP1 POP JUMP JUMPDEST PUSH32 0x496E76616C69642070726F647563742074797065000000000000000000000000 PUSH1 0x0 DUP3 ADD MSTORE POP JUMP JUMPDEST PUSH1 0x0 PUSH2 0x933 PUSH1 0x14 DUP4 PUSH2 0x814 JUMP JUMPDEST SWAP2 POP PUSH2 0x93E DUP3 PUSH2 0x8FD JUMP JUMPDEST PUSH1 0x20 DUP3 ADD SWAP1 POP SWAP2 SWAP1 POP JUMP JUMPDEST PUSH1 0x0 PUSH1 0x20 DUP3 ADD SWAP1 POP DUP2 DUP2 SUB PUSH1 0x0 DUP4 ADD MSTORE PUSH2 0x962 DUP2 PUSH2 0x926 JUMP JUMPDEST SWAP1 POP SWAP2 SWAP1 POP JUMP JUMPDEST PUSH32 0x496E76616C69642070726F6475637420737472656E6774680000000000000000 PUSH1 0x0 DUP3 ADD MSTORE POP JUMP JUMPDEST PUSH1 0x0 PUSH2 0x99F PUSH1 0x18 DUP4 PUSH2 0x814 JUMP JUMPDEST SWAP2 POP PUSH2 0x9AA DUP3 PUSH2 0x969 JUMP JUMPDEST PUSH1 0x20 DUP3 ADD SWAP1 POP SWAP2 SWAP1 POP JUMP JUMPDEST PUSH1 0x0 PUSH1 0x20 DUP3 ADD SWAP1 POP DUP2 DUP2 SUB PUSH1 0x0 DUP4 ADD MSTORE PUSH2 0x9CE DUP2 PUSH2 0x992 JUMP JUMPDEST SWAP1 POP SWAP2 SWAP1 POP JUMP JUMPDEST PUSH1 0x0 DUP2 MLOAD SWAP1 POP SWAP2 SWAP1 POP JUMP JUMPDEST PUSH1 0x0 JUMPDEST DUP4 DUP2 LT ISZERO PUSH2 0x9FE JUMPI DUP1 DUP3 ADD MLOAD DUP2 DUP5 ADD MSTORE PUSH1 0x20 DUP2 ADD SWAP1 POP PUSH2 0x9E3 JUMP JUMPDEST PUSH1 0x0 DUP5 DUP5 ADD MSTORE POP POP POP POP JUMP JUMPDEST PUSH1 0x0 PUSH2 0xA15 DUP3 PUSH2 0x9D5 JUMP JUMPDEST PUSH2 0xA1F DUP2 DUP6 PUSH2 0x814 JUMP JUMPDEST SWAP4 POP PUSH2 0xA2F DUP2 DUP6 PUSH1 0x20 DUP7 ADD PUSH2 0x9E0 JUMP JUMPDEST PUSH2 0xA38 DUP2 PUSH2 0x604 JUMP JUMPDEST DUP5 ADD SWAP2 POP POP SWAP3 SWAP2 POP POP JUMP JUMPDEST PUSH1 0x0 PUSH1 0x40 DUP3 ADD SWAP1 POP DUP2 DUP2 SUB PUSH1 0x0 DUP4 ADD MSTORE PUSH2 0xA5D DUP2 DUP6 PUSH2 0xA0A JUMP JUMPDEST SWAP1 POP DUP2 DUP2 SUB PUSH1 0x20 DUP4 ADD MSTORE PUSH2 0xA71 DUP2 DUP5 PUSH2 0xA0A JUMP JUMPDEST SWAP1 POP SWAP4 SWAP3 POP POP POP JUMP JUMPDEST PUSH1 0x0 DUP2 SWAP1 POP SWAP3 SWAP2 POP POP JUMP JUMPDEST PUSH1 0x0 PUSH2 0xA90 DUP3 PUSH2 0x9D5 JUMP JUMPDEST PUSH2 0xA9A DUP2 DUP6 PUSH2 0xA7A JUMP JUMPDEST SWAP4 POP PUSH2 0xAAA DUP2 DUP6 PUSH1 0x20 DUP7 ADD PUSH2 0x9E0 JUMP JUMPDEST DUP1 DUP5 ADD SWAP2 POP POP SWAP3 SWAP2 POP POP JUMP JUMPDEST PUSH1 0x0 PUSH2 0xAC2 DUP3 DUP5 PUSH2 0xA85 JUMP JUMPDEST SWAP2 POP DUP2 SWAP1 POP SWAP3 SWAP2 POP POP JUMP INVALID LOG2 PUSH5 0x6970667358 0x22 SLT KECCAK256 SWAP3 MSIZE MSTORE 0x24 ORIGIN SWAP16 LOG0 DUP8 0xC9 RETURNDATASIZE 0xB8 0xE4 DUP11 0x25 DUP16 PUSH3 0x7A717 DUP14 0xD0 MUL POP INVALID 0xEA MULMOD 0xE7 0x2B OR 0xD4 0xC6 PUSH13 0x64736F6C634300081C00330000 "
        },
        "methodIdentifiers": {
          "buyProduct(string,string)": "6256b8e4",
          "coffeePrice()": "1c8a4038",
          "getBalance()": "12065fe0",
          "owner()": "8da5cb5b",
          "withdraw()": "3ccfd60b"
        }
      }
    }
  }
}