{
  "_format": "hh-sol-artifact-1",
  "contractName": "Cafereum",
  "sourceName": "contracts/Cafereum.sol",
  "abi": [
    {
      "inputs": [
        {
          "internalType": "uint256",
          "name": "singleCoffeePrice",
          "type": "uint256"
        },
        {
          "internalType": "uint256",
          "name": "doubleCoffeePrice",
          "type": "uint256"
        },
        {
          "internalType": "uint256",
          "name": "singleEspressoPrice",
          "type": "uint256"
        },
        {
          "internalType": "uint256",
          "name": "doubleEspressoPrice",
          "type": "uint256"
        }
      ],
      "stateMutability": "nonpayable",
      "type": "constructor"
    },
    {
      "anonymous": false,
      "inputs": [
        {
          "indexed": false,
          "internalType": "string",
          "name": "productType",
          "type": "string"
        },
        {
          "indexed": false,
          "internalType": "string",
          "name": "productStrength",
          "type": "string"
        }
      ],
      "name": "ProductPurchased",
      "type": "event"
    },
    {
      "inputs": [
        {
          "internalType": "string",
          "name": "productType",
          "type": "string"
        },
        {
          "internalType": "string",
          "name": "productStrength",
          "type": "string"
        }
      ],
      "name": "buyProduct",
      "outputs": [],
      "stateMutability": "payable",
      "type": "function"
    },
    {
      "inputs": [],
      "name": "getBalance",
      "outputs": [
        {
          "internalType": "uint256",
          "name": "",
          "type": "uint256"
        }
      ],
      "stateMutability": "view",
      "type": "function"
    },
    {
      "inputs": [
        {
          "internalType": "string",
          "name": "productType",
          "type": "string"
        }
      ],
      "name": "getProductPrice",
      "outputs": [
        {
          "internalType": "uint256",
          "name": "",
          "type": "uint256"
        }
      ],
      "stateMutability": "view",
      "type": "function"
    },
    {
      "inputs": [],
      "name": "owner",
      "outputs": [
        {
          "internalType": "address payable",
          "name": "",
          "type": "address"
        }
      ],
      "stateMutability": "view",
      "type": "function"
    },
    {
      "inputs": [
        {
          "internalType": "string",
          "name": "",
          "type": "string"
        }
      ],
      "name": "productPrices",
      "outputs": [
        {
          "internalType": "uint256",
          "name": "",
          "type": "uint256"
        }
      ],
      "stateMutability": "view",
      "type": "function"
    },
    {
      "inputs": [
        {
          "internalType": "string",
          "name": "productType",
          "type": "string"
        },
        {
          "internalType": "uint256",
          "name": "price",
          "type": "uint256"
        }
      ],
      "name": "setProductPrice",
      "outputs": [],
      "stateMutability": "nonpayable",
      "type": "function"
    },
    {
      "inputs": [],
      "name": "withdraw",
      "outputs": [],
      "stateMutability": "nonpayable",
      "type": "function"
    }
  ],
  "bytecode": "0x608060405234801561001057600080fd5b506040516115953803806115958339818101604052810190610032919061027e565b336000806101000a81548173ffffffffffffffffffffffffffffffffffffffff021916908373ffffffffffffffffffffffffffffffffffffffff1602179055506100818461023760201b60201c565b6100c0576040517f08c379a00000000000000000000000000000000000000000000000000000000081526004016100b790610368565b60405180910390fd5b6100cf8361023760201b60201c565b61010e576040517f08c379a0000000000000000000000000000000000000000000000000000000008152600401610105906103fa565b60405180910390fd5b61011d8261023760201b60201c565b61015c576040517f08c379a00000000000000000000000000000000000000000000000000000000081526004016101539061048c565b60405180910390fd5b61016b8161023760201b60201c565b6101aa576040517f08c379a00000000000000000000000000000000000000000000000000000000081526004016101a19061051e565b60405180910390fd5b8360016040516101b990610595565b9081526020016040518091039020819055508260016040516101da906105f6565b9081526020016040518091039020819055508160016040516101fb90610657565b90815260200160405180910390208190555080600160405161021c906106b8565b908152602001604051809103902081905550505050506106cd565b60008082119050919050565b600080fd5b6000819050919050565b61025b81610248565b811461026657600080fd5b50565b60008151905061027881610252565b92915050565b6000806000806080858703121561029857610297610243565b5b60006102a687828801610269565b94505060206102b787828801610269565b93505060406102c887828801610269565b92505060606102d987828801610269565b91505092959194509250565b600082825260208201905092915050565b7f53696e676c65436f666665652070726963652073686f756c642062652067726560008201527f61746572207468616e207a65726f000000000000000000000000000000000000602082015250565b6000610352602e836102e5565b915061035d826102f6565b604082019050919050565b6000602082019050818103600083015261038181610345565b9050919050565b7f446f75626c65436f666665652070726963652073686f756c642062652067726560008201527f61746572207468616e207a65726f000000000000000000000000000000000000602082015250565b60006103e4602e836102e5565b91506103ef82610388565b604082019050919050565b60006020820190508181036000830152610413816103d7565b9050919050565b7f53696e676c65457370726573736f2070726963652073686f756c64206265206760008201527f726561746572207468616e207a65726f00000000000000000000000000000000602082015250565b60006104766030836102e5565b91506104818261041a565b604082019050919050565b600060208201905081810360008301526104a581610469565b9050919050565b7f446f75626c65457370726573736f2070726963652073686f756c64206265206760008201527f726561746572207468616e207a65726f00000000000000000000000000000000602082015250565b60006105086030836102e5565b9150610513826104ac565b604082019050919050565b60006020820190508181036000830152610537816104fb565b9050919050565b600081905092915050565b7f53696e676c65436f666665650000000000000000000000000000000000000000600082015250565b600061057f600c8361053e565b915061058a82610549565b600c82019050919050565b60006105a082610572565b9150819050919050565b7f446f75626c65436f666665650000000000000000000000000000000000000000600082015250565b60006105e0600c8361053e565b91506105eb826105aa565b600c82019050919050565b6000610601826105d3565b9150819050919050565b7f53696e676c65457370726573736f000000000000000000000000000000000000600082015250565b6000610641600e8361053e565b915061064c8261060b565b600e82019050919050565b600061066282610634565b9150819050919050565b7f446f75626c65457370726573736f000000000000000000000000000000000000600082015250565b60006106a2600e8361053e565b91506106ad8261066c565b600e82019050919050565b60006106c382610695565b9150819050919050565b610eb9806106dc6000396000f3fe6080604052600436106100705760003560e01c80636256b8e41161004e5780636256b8e4146100f4578063694caedf146101105780638da5cb5b1461014d578063dc4b6e7b1461017857610070565b8063086aa1721461007557806312065fe0146100b25780633ccfd60b146100dd575b600080fd5b34801561008157600080fd5b5061009c60048036038101906100979190610985565b6101a1565b6040516100a991906109e7565b60405180910390f35b3480156100be57600080fd5b506100c76101cf565b6040516100d491906109e7565b60405180910390f35b3480156100e957600080fd5b506100f26101d7565b005b61010e60048036038101906101099190610a02565b6102d4565b005b34801561011c57600080fd5b5061013760048036038101906101329190610985565b610401565b60405161014491906109e7565b60405180910390f35b34801561015957600080fd5b50610162610429565b60405161016f9190610abb565b60405180910390f35b34801561018457600080fd5b5061019f600480360381019061019a9190610b02565b61044d565b005b6001818051602081018201805184825260208301602085012081835280955050505050506000915090505481565b600047905090565b60008054906101000a900473ffffffffffffffffffffffffffffffffffffffff1673ffffffffffffffffffffffffffffffffffffffff163373ffffffffffffffffffffffffffffffffffffffff1614610265576040517f08c379a000000000000000000000000000000000000000000000000000000000815260040161025c90610bbb565b60405180910390fd5b600047905060008054906101000a900473ffffffffffffffffffffffffffffffffffffffff1673ffffffffffffffffffffffffffffffffffffffff166108fc829081150290604051600060405180830381858888f193505050501580156102d0573d6000803e3d6000fd5b5050565b6102dd82610592565b61031c576040517f08c379a000000000000000000000000000000000000000000000000000000000815260040161031390610c27565b60405180910390fd5b610325816106ac565b610364576040517f08c379a000000000000000000000000000000000000000000000000000000000815260040161035b90610c93565b60405180910390fd5b6001826040516103749190610d24565b90815260200160405180910390205434146103c4576040517f08c379a00000000000000000000000000000000000000000000000000000000081526004016103bb90610d87565b60405180910390fd5b7f530bfe02c23952f427d14753978f80ea284ba09b0709b6766f20706422d45e2682826040516103f5929190610de0565b60405180910390a15050565b60006001826040516104139190610d24565b9081526020016040518091039020549050919050565b60008054906101000a900473ffffffffffffffffffffffffffffffffffffffff1681565b60008054906101000a900473ffffffffffffffffffffffffffffffffffffffff1673ffffffffffffffffffffffffffffffffffffffff163373ffffffffffffffffffffffffffffffffffffffff16146104db576040517f08c379a00000000000000000000000000000000000000000000000000000000081526004016104d290610bbb565b60405180910390fd5b6104e482610592565b610523576040517f08c379a000000000000000000000000000000000000000000000000000000000815260040161051a90610c27565b60405180910390fd5b61052c816107c6565b61056b576040517f08c379a000000000000000000000000000000000000000000000000000000000815260040161056290610e63565b60405180910390fd5b8060018360405161057c9190610d24565b9081526020016040518091039020819055505050565b60006105d3826040518060400160405280600c81526020017f53696e676c65436f6666656500000000000000000000000000000000000000008152506107d2565b806106195750610618826040518060400160405280600c81526020017f446f75626c65436f6666656500000000000000000000000000000000000000008152506107d2565b5b8061065f575061065e826040518060400160405280600e81526020017f53696e676c65457370726573736f0000000000000000000000000000000000008152506107d2565b5b806106a557506106a4826040518060400160405280600e81526020017f446f75626c65457370726573736f0000000000000000000000000000000000008152506107d2565b5b9050919050565b60006106ed826040518060400160405280600481526020017f4d696c64000000000000000000000000000000000000000000000000000000008152506107d2565b806107335750610732826040518060400160405280600681526020017f4e6f726d616c00000000000000000000000000000000000000000000000000008152506107d2565b5b806107795750610778826040518060400160405280600681526020017f5374726f6e6700000000000000000000000000000000000000000000000000008152506107d2565b5b806107bf57506107be826040518060400160405280600581526020017f45787472610000000000000000000000000000000000000000000000000000008152506107d2565b5b9050919050565b60008082119050919050565b6000816040516020016107e59190610d24565b604051602081830303815290604052805190602001208360405160200161080c9190610d24565b6040516020818303038152906040528051906020012014905092915050565b6000604051905090565b600080fd5b600080fd5b600080fd5b600080fd5b6000601f19601f8301169050919050565b7f4e487b7100000000000000000000000000000000000000000000000000000000600052604160045260246000fd5b61089282610849565b810181811067ffffffffffffffff821117156108b1576108b061085a565b5b80604052505050565b60006108c461082b565b90506108d08282610889565b919050565b600067ffffffffffffffff8211156108f0576108ef61085a565b5b6108f982610849565b9050602081019050919050565b82818337600083830152505050565b6000610928610923846108d5565b6108ba565b90508281526020810184848401111561094457610943610844565b5b61094f848285610906565b509392505050565b600082601f83011261096c5761096b61083f565b5b813561097c848260208601610915565b91505092915050565b60006020828403121561099b5761099a610835565b5b600082013567ffffffffffffffff8111156109b9576109b861083a565b5b6109c584828501610957565b91505092915050565b6000819050919050565b6109e1816109ce565b82525050565b60006020820190506109fc60008301846109d8565b92915050565b60008060408385031215610a1957610a18610835565b5b600083013567ffffffffffffffff811115610a3757610a3661083a565b5b610a4385828601610957565b925050602083013567ffffffffffffffff811115610a6457610a6361083a565b5b610a7085828601610957565b9150509250929050565b600073ffffffffffffffffffffffffffffffffffffffff82169050919050565b6000610aa582610a7a565b9050919050565b610ab581610a9a565b82525050565b6000602082019050610ad06000830184610aac565b92915050565b610adf816109ce565b8114610aea57600080fd5b50565b600081359050610afc81610ad6565b92915050565b60008060408385031215610b1957610b18610835565b5b600083013567ffffffffffffffff811115610b3757610b3661083a565b5b610b4385828601610957565b9250506020610b5485828601610aed565b9150509250929050565b600082825260208201905092915050565b7f596f7520617265206e6f7420746865206f776e65720000000000000000000000600082015250565b6000610ba5601583610b5e565b9150610bb082610b6f565b602082019050919050565b60006020820190508181036000830152610bd481610b98565b9050919050565b7f496e76616c69642070726f647563742074797065000000000000000000000000600082015250565b6000610c11601483610b5e565b9150610c1c82610bdb565b602082019050919050565b60006020820190508181036000830152610c4081610c04565b9050919050565b7f496e76616c69642070726f6475637420737472656e6774680000000000000000600082015250565b6000610c7d601883610b5e565b9150610c8882610c47565b602082019050919050565b60006020820190508181036000830152610cac81610c70565b9050919050565b600081519050919050565b600081905092915050565b60005b83811015610ce7578082015181840152602081019050610ccc565b60008484015250505050565b6000610cfe82610cb3565b610d088185610cbe565b9350610d18818560208601610cc9565b80840191505092915050565b6000610d308284610cf3565b915081905092915050565b7f496e636f727265637420616d6f756e742073656e740000000000000000000000600082015250565b6000610d71601583610b5e565b9150610d7c82610d3b565b602082019050919050565b60006020820190508181036000830152610da081610d64565b9050919050565b6000610db282610cb3565b610dbc8185610b5e565b9350610dcc818560208601610cc9565b610dd581610849565b840191505092915050565b60006040820190508181036000830152610dfa8185610da7565b90508181036020830152610e0e8184610da7565b90509392505050565b7f5072696365206d7573742062652067726561746572207468616e207a65726f00600082015250565b6000610e4d601f83610b5e565b9150610e5882610e17565b602082019050919050565b60006020820190508181036000830152610e7c81610e40565b905091905056fea2646970667358221220d032d4328ee76ec941b84248b084f187d8bc85818b2cca57313a9e7b0e1917b064736f6c634300081c0033",
  "linkReferences": {},
  "deployedLinkReferences": {}
}